{
    "contractName": "Ballot",
    "abi": [
        {
            "inputs": [
                {
                    "internalType": "bytes32[]",
                    "name": "proposalNames",
                    "type": "bytes32[]"
                }
            ],
            "stateMutability": "nonpayable",
            "type": "constructor"
        },
        {
            "inputs": [],
            "name": "chairperson",
            "outputs": [
                {
                    "internalType": "address",
                    "name": "",
                    "type": "address"
                }
            ],
            "stateMutability": "view",
            "type": "function"
        },
        {
            "inputs": [
                {
                    "internalType": "address",
                    "name": "to",
                    "type": "address"
                }
            ],
            "name": "delegate",
            "outputs": [],
            "stateMutability": "nonpayable",
            "type": "function"
        },
        {
            "inputs": [
                {
                    "internalType": "address[]",
                    "name": "newVoters",
                    "type": "address[]"
                }
            ],
            "name": "giveRightToVote",
            "outputs": [],
            "stateMutability": "nonpayable",
            "type": "function"
        },
        {
            "inputs": [
                {
                    "internalType": "uint256",
                    "name": "",
                    "type": "uint256"
                }
            ],
            "name": "proposals",
            "outputs": [
                {
                    "internalType": "bytes32",
                    "name": "name",
                    "type": "bytes32"
                },
                {
                    "internalType": "uint256",
                    "name": "voteCount",
                    "type": "uint256"
                }
            ],
            "stateMutability": "view",
            "type": "function"
        },
        {
            "inputs": [
                {
                    "internalType": "uint256",
                    "name": "proposal",
                    "type": "uint256"
                }
            ],
            "name": "vote",
            "outputs": [],
            "stateMutability": "nonpayable",
            "type": "function"
        },
        {
            "inputs": [
                {
                    "internalType": "address",
                    "name": "",
                    "type": "address"
                }
            ],
            "name": "voters",
            "outputs": [
                {
                    "internalType": "uint256",
                    "name": "weight",
                    "type": "uint256"
                },
                {
                    "internalType": "bool",
                    "name": "voted",
                    "type": "bool"
                },
                {
                    "internalType": "address",
                    "name": "delegate",
                    "type": "address"
                },
                {
                    "internalType": "uint256",
                    "name": "vote",
                    "type": "uint256"
                }
            ],
            "stateMutability": "view",
            "type": "function"
        },
        {
            "inputs": [],
            "name": "winnerName",
            "outputs": [
                {
                    "internalType": "bytes32[]",
                    "name": "",
                    "type": "bytes32[]"
                }
            ],
            "stateMutability": "view",
            "type": "function"
        },
        {
            "inputs": [],
            "name": "winningProposal",
            "outputs": [
                {
                    "internalType": "uint256[]",
                    "name": "",
                    "type": "uint256[]"
                }
            ],
            "stateMutability": "view",
            "type": "function"
        }
    ],
    "bytecode": "60806040523480156200001157600080fd5b5060405162000d8038038062000d808339810160408190526200003491620000ef565b600080546001600160a01b03191633908117825581526001602081905260408220555b8151811015620000d15760026040518060400160405280848481518110620000835762000083620001b8565b60209081029190910181015182526000918101829052835460018181018655948352918190208351600290930201918255919091015191015580620000c881620001ce565b91505062000057565b5050620001f6565b634e487b7160e01b600052604160045260246000fd5b600060208083850312156200010357600080fd5b82516001600160401b03808211156200011b57600080fd5b818501915085601f8301126200013057600080fd5b815181811115620001455762000145620000d9565b8060051b604051601f19603f830116810181811085821117156200016d576200016d620000d9565b6040529182528482019250838101850191888311156200018c57600080fd5b938501935b82851015620001ac5784518452938501939285019262000191565b98975050505050505050565b634e487b7160e01b600052603260045260246000fd5b600060018201620001ef57634e487b7160e01b600052601160045260246000fd5b5060010190565b610b7a80620002066000396000f3fe608060405234801561001057600080fd5b50600436106100885760003560e01c8063609ff1bd1161005b578063609ff1bd1461010d5780638581682914610122578063a3ec138d14610135578063e2ba53f0146101a657600080fd5b80630121b93f1461008d578063013cf08b146100a25780632e4176cf146100cf5780635c19a95c146100fa575b600080fd5b6100a061009b3660046109ce565b6101ae565b005b6100b56100b03660046109ce565b6102a8565b604080519283526020830191909152015b60405180910390f35b6000546100e2906001600160a01b031681565b6040516001600160a01b0390911681526020016100c6565b6100a06101083660046109e7565b6102d6565b610115610537565b6040516100c69190610a17565b6100a0610130366004610a5b565b610743565b6101776101433660046109e7565b600160208190526000918252604090912080549181015460029091015460ff82169161010090046001600160a01b03169084565b6040516100c6949392919093845291151560208401526001600160a01b03166040830152606082015260800190565b6101156108f8565b336000908152600160205260408120805490910361020a5760405162461bcd60e51b8152602060048201526014602482015273486173206e6f20726967687420746f20766f746560601b60448201526064015b60405180910390fd5b600181015460ff16156102505760405162461bcd60e51b815260206004820152600e60248201526d20b63932b0b23c903b37ba32b21760911b6044820152606401610201565b6001818101805460ff191690911790556002808201839055815481549091908490811061027f5761027f610ad0565b9060005260206000209060020201600101600082825461029f9190610afc565b90915550505050565b600281815481106102b857600080fd5b60009182526020909120600290910201805460019091015490915082565b33600090815260016020526040812080549091036103365760405162461bcd60e51b815260206004820152601960248201527f596f752068617665206e6f20726967687420746f20766f7465000000000000006044820152606401610201565b600181015460ff16156103805760405162461bcd60e51b81526020600482015260126024820152712cb7ba9030b63932b0b23c903b37ba32b21760711b6044820152606401610201565b336001600160a01b038316036103d85760405162461bcd60e51b815260206004820152601e60248201527f53656c662d64656c65676174696f6e20697320646973616c6c6f7765642e00006044820152606401610201565b6001600160a01b03828116600090815260016020819052604090912001546101009004161561047c576001600160a01b03918216600090815260016020819052604090912001546101009004909116903382036104775760405162461bcd60e51b815260206004820152601960248201527f466f756e64206c6f6f7020696e2064656c65676174696f6e2e000000000000006044820152606401610201565b6103d8565b6001600160a01b03821660009081526001602081905260409091208054909111156104a657600080fd5b600182810180546001600160a81b0319166101006001600160a01b03871602178217905581015460ff1615610518578154600282810154815481106104ed576104ed610ad0565b9060005260206000209060020201600101600082825461050d9190610afc565b909155506105329050565b81548154829060009061052c908490610afc565b90915550505b505050565b6060600080600060028054905067ffffffffffffffff81111561055c5761055c610b15565b604051908082528060200260200182016040528015610585578160200160208202803683370190505b50905060005b60025481101561069d5782600282815481106105a9576105a9610ad0565b906000526020600020906002020160010154111561060d576002546000945067ffffffffffffffff8111156105e0576105e0610b15565b604051908082528060200260200182016040528015610609578160200160208202803683370190505b5091505b826002828154811061062157610621610ad0565b9060005260206000209060020201600101541061068b576002818154811061064b5761064b610ad0565b90600052602060002090600202016001015492508082858151811061067257610672610ad0565b60209081029190910101528361068781610b2b565b9450505b8061069581610b2b565b91505061058b565b5060008367ffffffffffffffff8111156106b9576106b9610b15565b6040519080825280602002602001820160405280156106e2578160200160208202803683370190505b50905060005b815181101561073a5782818151811061070357610703610ad0565b602002602001015182828151811061071d5761071d610ad0565b60209081029190910101528061073281610b2b565b9150506106e8565b50949350505050565b6000546001600160a01b031633146107ae5760405162461bcd60e51b815260206004820152602860248201527f4f6e6c79206368616972706572736f6e2063616e2067697665207269676874206044820152673a37903b37ba329760c11b6064820152608401610201565b60005b8181101561053257600160008484848181106107cf576107cf610ad0565b90506020020160208101906107e491906109e7565b6001600160a01b0316815260208101919091526040016000206001015460ff16156108515760405162461bcd60e51b815260206004820152601860248201527f54686520766f74657220616c726561647920766f7465642e00000000000000006044820152606401610201565b6001600084848481811061086757610867610ad0565b905060200201602081019061087c91906109e7565b6001600160a01b03168152602081019190915260400160002054156108a057600080fd5b60018060008585858181106108b7576108b7610ad0565b90506020020160208101906108cc91906109e7565b6001600160a01b03168152602081019190915260400160002055806108f081610b2b565b9150506107b1565b60606000610904610537565b90506000815167ffffffffffffffff81111561092257610922610b15565b60405190808252806020026020018201604052801561094b578160200160208202803683370190505b50905060005b82518110156109c757600283828151811061096e5761096e610ad0565b60200260200101518154811061098657610986610ad0565b9060005260206000209060020201600001548282815181106109aa576109aa610ad0565b6020908102919091010152806109bf81610b2b565b915050610951565b5092915050565b6000602082840312156109e057600080fd5b5035919050565b6000602082840312156109f957600080fd5b81356001600160a01b0381168114610a1057600080fd5b9392505050565b6020808252825182820181905260009190848201906040850190845b81811015610a4f57835183529284019291840191600101610a33565b50909695505050505050565b60008060208385031215610a6e57600080fd5b823567ffffffffffffffff80821115610a8657600080fd5b818501915085601f830112610a9a57600080fd5b813581811115610aa957600080fd5b8660208260051b8501011115610abe57600080fd5b60209290920196919550909350505050565b634e487b7160e01b600052603260045260246000fd5b634e487b7160e01b600052601160045260246000fd5b80820180821115610b0f57610b0f610ae6565b92915050565b634e487b7160e01b600052604160045260246000fd5b600060018201610b3d57610b3d610ae6565b506001019056fea2646970667358221220b396415a2436a414cf00a693d32b7d80db588d275f66ffee00f135ee275aa6a364736f6c63430008110033",
    "sourcePath": "c:/Users/kvdjonck/Desktop/BlockchainDev/20221005_Solidity-by-example_Voting/voting/contracts/Ballot.sol",
    "compiler": {
        "name": "solc",
        "version": "0.8.17+commit.8df45f5f"
    },
    "functionHashes": {
        "chairperson()": "2e4176cf",
        "delegate(address)": "5c19a95c",
        "giveRightToVote(address[])": "85816829",
        "proposals(uint256)": "013cf08b",
        "vote(uint256)": "0121b93f",
        "voters(address)": "a3ec138d",
        "winnerName()": "e2ba53f0",
        "winningProposal()": "609ff1bd"
    },
    "gasEstimates": {
        "creation": {
            "codeDepositCost": "587600",
            "executionCost": "infinite",
            "totalCost": "infinite"
        },
        "external": {
            "chairperson()": "2382",
            "delegate(address)": "infinite",
            "giveRightToVote(address[])": "infinite",
            "proposals(uint256)": "6743",
            "vote(uint256)": "79515",
            "voters(address)": "6895",
            "winnerName()": "infinite",
            "winningProposal()": "infinite"
        }
    }
}