{
  "contractName": "Ballot",
  "abi": [
    {
      "inputs": [
        {
          "internalType": "bytes32[]",
          "name": "proposalNames",
          "type": "bytes32[]"
        }
      ],
      "payable": false,
      "stateMutability": "nonpayable",
      "type": "constructor"
    },
    {
      "constant": true,
      "inputs": [],
      "name": "chairperson",
      "outputs": [
        {
          "internalType": "address",
          "name": "",
          "type": "address"
        }
      ],
      "payable": false,
      "stateMutability": "view",
      "type": "function"
    },
    {
      "constant": true,
      "inputs": [
        {
          "internalType": "uint256",
          "name": "",
          "type": "uint256"
        }
      ],
      "name": "proposals",
      "outputs": [
        {
          "internalType": "bytes32",
          "name": "name",
          "type": "bytes32"
        },
        {
          "internalType": "uint256",
          "name": "voteCount",
          "type": "uint256"
        }
      ],
      "payable": false,
      "stateMutability": "view",
      "type": "function"
    },
    {
      "constant": true,
      "inputs": [
        {
          "internalType": "address",
          "name": "",
          "type": "address"
        }
      ],
      "name": "voters",
      "outputs": [
        {
          "internalType": "uint256",
          "name": "weight",
          "type": "uint256"
        },
        {
          "internalType": "bool",
          "name": "voted",
          "type": "bool"
        },
        {
          "internalType": "address",
          "name": "delegate",
          "type": "address"
        },
        {
          "internalType": "uint256",
          "name": "vote",
          "type": "uint256"
        }
      ],
      "payable": false,
      "stateMutability": "view",
      "type": "function"
    },
    {
      "constant": false,
      "inputs": [
        {
          "internalType": "address[]",
          "name": "newVoters",
          "type": "address[]"
        }
      ],
      "name": "giveRightToVote",
      "outputs": [],
      "payable": false,
      "stateMutability": "nonpayable",
      "type": "function"
    },
    {
      "constant": false,
      "inputs": [
        {
          "internalType": "address",
          "name": "to",
          "type": "address"
        }
      ],
      "name": "delegate",
      "outputs": [],
      "payable": false,
      "stateMutability": "nonpayable",
      "type": "function"
    },
    {
      "constant": false,
      "inputs": [
        {
          "internalType": "uint256",
          "name": "proposal",
          "type": "uint256"
        }
      ],
      "name": "vote",
      "outputs": [],
      "payable": false,
      "stateMutability": "nonpayable",
      "type": "function"
    },
    {
      "constant": true,
      "inputs": [],
      "name": "winningProposal",
      "outputs": [
        {
          "internalType": "uint256[]",
          "name": "",
          "type": "uint256[]"
        }
      ],
      "payable": false,
      "stateMutability": "view",
      "type": "function"
    },
    {
      "constant": true,
      "inputs": [],
      "name": "winnerName",
      "outputs": [
        {
          "internalType": "bytes32[]",
          "name": "winnerNames_",
          "type": "bytes32[]"
        }
      ],
      "payable": false,
      "stateMutability": "view",
      "type": "function"
    }
  ],
  "bytecode": "0x608060405234801561001057600080fd5b5060405161111a38038061111a8339818101604052602081101561003357600080fd5b810190808051604051939291908464010000000082111561005357600080fd5b8382019150602082018581111561006957600080fd5b825186602082028301116401000000008211171561008657600080fd5b8083526020830192505050908051906020019060200280838360005b838110156100bd5780820151818401526020810190506100a2565b50505050905001604052505050336000806101000a81548173ffffffffffffffffffffffffffffffffffffffff021916908373ffffffffffffffffffffffffffffffffffffffff16021790555060018060008060009054906101000a900473ffffffffffffffffffffffffffffffffffffffff1673ffffffffffffffffffffffffffffffffffffffff1673ffffffffffffffffffffffffffffffffffffffff1681526020019081526020016000206000018190555060008090505b81518110156101fb576002604051806040016040528084848151811061019a57fe5b6020026020010151815260200160008152509080600181540180825580915050906001820390600052602060002090600202016000909192909190915060008201518160000155602082015181600101555050508080600101915050610178565b5050610f0e8061020c6000396000f3fe608060405234801561001057600080fd5b50600436106100885760003560e01c8063609ff1bd1161005b578063609ff1bd1461019257806385816829146101f1578063a3ec138d1461026a578063e2ba53f01461030757610088565b80630121b93f1461008d578063013cf08b146100bb5780632e4176cf146101045780635c19a95c1461014e575b600080fd5b6100b9600480360360208110156100a357600080fd5b8101908080359060200190929190505050610366565b005b6100e7600480360360208110156100d157600080fd5b8101908080359060200190929190505050610503565b604051808381526020018281526020019250505060405180910390f35b61010c610534565b604051808273ffffffffffffffffffffffffffffffffffffffff1673ffffffffffffffffffffffffffffffffffffffff16815260200191505060405180910390f35b6101906004803603602081101561016457600080fd5b81019080803573ffffffffffffffffffffffffffffffffffffffff169060200190929190505050610559565b005b61019a610a02565b6040518080602001828103825283818151815260200191508051906020019060200280838360005b838110156101dd5780820151818401526020810190506101c2565b505050509050019250505060405180910390f35b6102686004803603602081101561020757600080fd5b810190808035906020019064010000000081111561022457600080fd5b82018360208201111561023657600080fd5b8035906020019184602083028401116401000000008311171561025857600080fd5b9091929391929390505050610b40565b005b6102ac6004803603602081101561028057600080fd5b81019080803573ffffffffffffffffffffffffffffffffffffffff169060200190929190505050610dd9565b60405180858152602001841515151581526020018373ffffffffffffffffffffffffffffffffffffffff1673ffffffffffffffffffffffffffffffffffffffff16815260200182815260200194505050505060405180910390f35b61030f610e36565b6040518080602001828103825283818151815260200191508051906020019060200280838360005b83811015610352578082015181840152602081019050610337565b505050509050019250505060405180910390f35b6000600160003373ffffffffffffffffffffffffffffffffffffffff1673ffffffffffffffffffffffffffffffffffffffff1681526020019081526020016000209050600081600001541415610424576040517f08c379a00000000000000000000000000000000000000000000000000000000081526004018080602001828103825260148152602001807f486173206e6f20726967687420746f20766f746500000000000000000000000081525060200191505060405180910390fd5b8060010160009054906101000a900460ff16156104a9576040517f08c379a000000000000000000000000000000000000000000000000000000000815260040180806020018281038252600e8152602001807f416c726561647920766f7465642e00000000000000000000000000000000000081525060200191505060405180910390fd5b60018160010160006101000a81548160ff0219169083151502179055508181600201819055508060000154600283815481106104e157fe5b9060005260206000209060020201600101600082825401925050819055505050565b6002818154811061051057fe5b90600052602060002090600202016000915090508060000154908060010154905082565b6000809054906101000a900473ffffffffffffffffffffffffffffffffffffffff1681565b6000600160003373ffffffffffffffffffffffffffffffffffffffff1673ffffffffffffffffffffffffffffffffffffffff1681526020019081526020016000209050600081600001541415610617576040517f08c379a00000000000000000000000000000000000000000000000000000000081526004018080602001828103825260198152602001807f596f752068617665206e6f20726967687420746f20766f74650000000000000081525060200191505060405180910390fd5b8060010160009054906101000a900460ff161561069c576040517f08c379a00000000000000000000000000000000000000000000000000000000081526004018080602001828103825260128152602001807f596f7520616c726561647920766f7465642e000000000000000000000000000081525060200191505060405180910390fd5b3373ffffffffffffffffffffffffffffffffffffffff168273ffffffffffffffffffffffffffffffffffffffff16141561073e576040517f08c379a000000000000000000000000000000000000000000000000000000000815260040180806020018281038252601e8152602001807f53656c662d64656c65676174696f6e20697320646973616c6c6f7765642e000081525060200191505060405180910390fd5b5b600073ffffffffffffffffffffffffffffffffffffffff16600160008473ffffffffffffffffffffffffffffffffffffffff1673ffffffffffffffffffffffffffffffffffffffff16815260200190815260200160002060010160019054906101000a900473ffffffffffffffffffffffffffffffffffffffff1673ffffffffffffffffffffffffffffffffffffffff16146108e157600160008373ffffffffffffffffffffffffffffffffffffffff1673ffffffffffffffffffffffffffffffffffffffff16815260200190815260200160002060010160019054906101000a900473ffffffffffffffffffffffffffffffffffffffff1691503373ffffffffffffffffffffffffffffffffffffffff168273ffffffffffffffffffffffffffffffffffffffff1614156108dc576040517f08c379a00000000000000000000000000000000000000000000000000000000081526004018080602001828103825260198152602001807f466f756e64206c6f6f7020696e2064656c65676174696f6e2e0000000000000081525060200191505060405180910390fd5b61073f565b6000600160008473ffffffffffffffffffffffffffffffffffffffff1673ffffffffffffffffffffffffffffffffffffffff168152602001908152602001600020905060018160000154101561093657600080fd5b60018260010160006101000a81548160ff021916908315150217905550828260010160016101000a81548173ffffffffffffffffffffffffffffffffffffffff021916908373ffffffffffffffffffffffffffffffffffffffff1602179055508060010160009054906101000a900460ff16156109e657816000015460028260020154815481106109c357fe5b9060005260206000209060020201600101600082825401925050819055506109fd565b816000015481600001600082825401925050819055505b505050565b6060600080905060008090506060600280549050604051908082528060200260200182016040528015610a445781602001602082028038833980820191505090505b50905060008090505b600280549050811015610b36578260028281548110610a6857fe5b9060005260206000209060020201600101541115610ac05760009350600280549050604051908082528060200260200182016040528015610ab85781602001602082028038833980820191505090505b509150610b29565b8260028281548110610ace57fe5b90600052602060002090600202016001015410610b285760028181548110610af257fe5b906000526020600020906002020160010154925080828581518110610b1357fe5b60200260200101818152505083806001019450505b5b8080600101915050610a4d565b5080935050505090565b6000809054906101000a900473ffffffffffffffffffffffffffffffffffffffff1673ffffffffffffffffffffffffffffffffffffffff163373ffffffffffffffffffffffffffffffffffffffff1614610be5576040517f08c379a0000000000000000000000000000000000000000000000000000000008152600401808060200182810382526028815260200180610eb26028913960400191505060405180910390fd5b60008090505b82829050811015610dd45760016000848484818110610c0657fe5b9050602002013573ffffffffffffffffffffffffffffffffffffffff1673ffffffffffffffffffffffffffffffffffffffff1673ffffffffffffffffffffffffffffffffffffffff16815260200190815260200160002060010160009054906101000a900460ff1615610ce1576040517f08c379a00000000000000000000000000000000000000000000000000000000081526004018080602001828103825260188152602001807f54686520766f74657220616c726561647920766f7465642e000000000000000081525060200191505060405180910390fd5b600060016000858585818110610cf357fe5b9050602002013573ffffffffffffffffffffffffffffffffffffffff1673ffffffffffffffffffffffffffffffffffffffff1673ffffffffffffffffffffffffffffffffffffffff1681526020019081526020016000206000015414610d5857600080fd5b6001806000858585818110610d6957fe5b9050602002013573ffffffffffffffffffffffffffffffffffffffff1673ffffffffffffffffffffffffffffffffffffffff1673ffffffffffffffffffffffffffffffffffffffff168152602001908152602001600020600001819055508080600101915050610beb565b505050565b60016020528060005260406000206000915090508060000154908060010160009054906101000a900460ff16908060010160019054906101000a900473ffffffffffffffffffffffffffffffffffffffff16908060020154905084565b606080610e41610a02565b905060008090505b8151811015610ea9576002828281518110610e6057fe5b602002602001015181548110610e7257fe5b906000526020600020906002020160000154838281518110610e9057fe5b6020026020010181815250508080600101915050610e49565b50819150509056fe4f6e6c79206368616972706572736f6e2063616e206769766520726967687420746f20766f74652ea265627a7a72315820d6c96991b99c200bc3bed6165be77b49510d05dc2d65fa8661b35564c79b699864736f6c63430005100032",
  "source": "// SPDX-License-Identifier: GPL-3.0\r\npragma solidity >=0.4.22 <=0.8.17;\r\n/// @title Voting with delegation.\r\ncontract Ballot {\r\n    // This declares a new complex type which will\r\n    // be used for variables later.\r\n    // It will represent a single voter.\r\n    struct Voter {\r\n        uint weight; // weight is accumulated by delegation\r\n        bool voted;  // if true, that person already voted\r\n        address delegate; // person delegated to\r\n        uint vote;   // index of the voted proposal\r\n    }\r\n\r\n    // This is a type for a single proposal.\r\n    struct Proposal {\r\n        bytes32 name;   // short name (up to 32 bytes)\r\n        uint voteCount; // number of accumulated votes\r\n    }\r\n\r\n    address public chairperson;\r\n\r\n    // This declares a state variable that\r\n    // stores a `Voter` struct for each possible address.\r\n    mapping(address => Voter) public voters;\r\n\r\n    // A dynamically-sized array of `Proposal` structs.\r\n    Proposal[] public proposals;\r\n\r\n    /// Create a new ballot to choose one of `proposalNames`.\r\n    constructor(bytes32[] memory proposalNames) public {\r\n        chairperson = msg.sender;\r\n        voters[chairperson].weight = 1;\r\n\r\n        // For each of the provided proposal names,\r\n        // create a new proposal object and add it\r\n        // to the end of the array.\r\n        for (uint i = 0; i < proposalNames.length; i++) {\r\n            // `Proposal({...})` creates a temporary\r\n            // Proposal object and `proposals.push(...)`\r\n            // appends it to the end of `proposals`.\r\n            proposals.push(Proposal({\r\n                name: proposalNames[i],\r\n                voteCount: 0\r\n            }));\r\n        }\r\n    }\r\n\r\n    // Give `voter` the right to vote on this ballot.\r\n    // May only be called by `chairperson`.\r\n    function giveRightToVote(address[] calldata newVoters) external {\r\n        // If the first argument of `require` evaluates\r\n        // to `false`, execution terminates and all\r\n        // changes to the state and to Ether balances\r\n        // are reverted.\r\n        // This used to consume all gas in old EVM versions, but\r\n        // not anymore.\r\n        // It is often a good idea to use `require` to check if\r\n        // functions are called correctly.\r\n        // As a second argument, you can also provide an\r\n        // explanation about what went wrong.        \r\n        require(\r\n            msg.sender == chairperson,\r\n            \"Only chairperson can give right to vote.\"\r\n        );\r\n        for (uint256 i = 0; i < newVoters.length; i++) {\r\n            require(\r\n                !voters[newVoters[i]].voted,\r\n                \"The voter already voted.\"\r\n            );\r\n            require(voters[newVoters[i]].weight == 0);\r\n            voters[newVoters[i]].weight = 1;\r\n        }        \r\n    }\r\n\r\n    /// Delegate your vote to the voter `to`.\r\n    function delegate(address to) external {\r\n        // assigns reference\r\n        Voter storage sender = voters[msg.sender];\r\n        require(sender.weight != 0, \"You have no right to vote\");\r\n        require(!sender.voted, \"You already voted.\");\r\n\r\n        require(to != msg.sender, \"Self-delegation is disallowed.\");\r\n\r\n        // Forward the delegation as long as\r\n        // `to` also delegated.\r\n        // In general, such loops are very dangerous,\r\n        // because if they run too long, they might\r\n        // need more gas than is available in a block.\r\n        // In this case, the delegation will not be executed,\r\n        // but in other situations, such loops might\r\n        // cause a contract to get \"stuck\" completely.\r\n        while (voters[to].delegate != address(0)) {\r\n            to = voters[to].delegate;\r\n\r\n            // We found a loop in the delegation, not allowed.\r\n            require(to != msg.sender, \"Found loop in delegation.\");\r\n        }\r\n\r\n        Voter storage delegate_ = voters[to];\r\n\r\n        // Voters cannot delegate to accounts that cannot vote.\r\n        require(delegate_.weight >= 1);\r\n\r\n        // Since `sender` is a reference, this\r\n        // modifies `voters[msg.sender]`.\r\n        sender.voted = true;\r\n        sender.delegate = to;\r\n\r\n        if (delegate_.voted) {\r\n            // If the delegate already voted,\r\n            // directly add to the number of votes\r\n            proposals[delegate_.vote].voteCount += sender.weight;\r\n        } else {\r\n            // If the delegate did not vote yet,\r\n            // add to her weight.\r\n            delegate_.weight += sender.weight;\r\n        }\r\n    }\r\n\r\n    /// Give your vote (including votes delegated to you)\r\n    /// to proposal `proposals[proposal].name`.\r\n    function vote(uint proposal) external {\r\n        Voter storage sender = voters[msg.sender];\r\n        require(sender.weight != 0, \"Has no right to vote\");\r\n        require(!sender.voted, \"Already voted.\");\r\n        sender.voted = true;\r\n        sender.vote = proposal;\r\n\r\n        // If `proposal` is out of the range of the array,\r\n        // this will throw automatically and revert all\r\n        // changes.\r\n        proposals[proposal].voteCount += sender.weight;\r\n    }\r\n\r\n    /// @dev Computes the winning proposal taking all\r\n    /// previous votes into account.\r\n    function winningProposal() public view\r\n            returns (uint[] memory)\r\n    {\r\n        uint length = 0;\r\n        uint winningVoteCount = 0;\r\n        uint[] memory winningProposals_ = new uint[](proposals.length);\r\n\r\n        for (uint p = 0; p < proposals.length; p++) {\r\n            if (proposals[p].voteCount > winningVoteCount) {\r\n                length = 0;\r\n                winningProposals_ = new uint[](proposals.length);\r\n            } else if (proposals[p].voteCount >= winningVoteCount) {\r\n                winningVoteCount = proposals[p].voteCount;\r\n                winningProposals_[length] = p;\r\n                length++;\r\n            }\r\n        }\r\n\r\n        return winningProposals_;\r\n    }\r\n\r\n    // Calls winningProposal() function to get the index\r\n    // of the winner contained in the proposals array and then\r\n    // returns the name of the winner\r\n    function winnerName() external view\r\n            returns (bytes32[] memory winnerNames_)\r\n    {\r\n        uint[] memory winningProposals = winningProposal();\r\n\r\n        for (uint256 i = 0; i < winningProposals.length; i++) {\r\n            winnerNames_[i] = proposals[winningProposals[i]].name;\r\n        }\r\n        return winnerNames_;\r\n    }\r\n}",
  "sourcePath": "C:\\Users\\kvdjonck\\Desktop\\BlockchainDev\\20221005_Solidity-by-example_Voting\\voting\\contracts\\Ballot.sol",
  "compiler": {
    "name": "solc",
    "version": "0.5.16+commit.9c3226ce.Emscripten.clang"
  },
  "schemaVersion": "3.4.10",
  "updatedAt": "2022-10-06T05:43:21.990Z",
  "devdoc": {
    "methods": {
      "winningProposal()": {
        "details": "Computes the winning proposal taking all previous votes into account."
      }
    },
    "title": "Voting with delegation."
  },
  "userdoc": {
    "methods": {
      "constructor": "Create a new ballot to choose one of `proposalNames`.",
      "delegate(address)": {
        "notice": "Delegate your vote to the voter `to`."
      },
      "vote(uint256)": {
        "notice": "Give your vote (including votes delegated to you) to proposal `proposals[proposal].name`."
      }
    }
  }
}